:020000040000FA
:060000000A128A11FA2F1A
:100F4600B22FC730F200A72FF20BA62FAA2FAB2F76
:100F56000130F0020030031CF103F102B22F7008D9
:100F66007104031DB72FB82FA42FB92F08008316BD
:100F7600031308158810831203138810F301F40174
:100F8600C42F83120313081DC92FCA2FD02F88140C
:100F96009430F3001130F400D02F0819D32FD42F3A
:100FA600C42FFF30F3070318F40AFF30F4070130AB
:100FB600F0000030F1000A128A11A3270A128A11E2
:100FC6007408803AFF0080307F02031DEC2F013049
:100FD60073020318EF2FF02FC42F83120313881008
:100FE600C42FC42FC42FC42F0A128A110028F5015A
:0A0FF600F60183010A128A11BA2FD6
:04400E00D4E0FFFFFC
:00000001FF
